{
  "_format": "hh-sol-artifact-1",
  "contractName": "Wallet",
  "sourceName": "contracts/wallet.sol",
  "abi": [
    {
      "stateMutability": "payable",
      "type": "fallback"
    },
    {
      "inputs": [],
      "name": "getBalance",
      "outputs": [
        {
          "internalType": "uint256",
          "name": "",
          "type": "uint256"
        }
      ],
      "stateMutability": "view",
      "type": "function"
    },
    {
      "inputs": [],
      "name": "recevoir",
      "outputs": [],
      "stateMutability": "payable",
      "type": "function"
    },
    {
      "inputs": [
        {
          "internalType": "address payable",
          "name": "ad1",
          "type": "address"
        },
        {
          "internalType": "uint256",
          "name": "_amount",
          "type": "uint256"
        }
      ],
      "name": "retirer",
      "outputs": [],
      "stateMutability": "nonpayable",
      "type": "function"
    }
  ],
  "bytecode": "0x608060405234801561001057600080fd5b50610466806100206000396000f3fe6080604052600436106100385760003560e01c806312065fe01461003b5780633ecf08cc1461006657806393c0cbc61461008f57610039565b5b005b34801561004757600080fd5b50610050610099565b60405161005d9190610232565b60405180910390f35b34801561007257600080fd5b5061008d600480360381019061008891906102dc565b6100df565b005b6100976101c2565b005b60008060003373ffffffffffffffffffffffffffffffffffffffff1673ffffffffffffffffffffffffffffffffffffffff16815260200190815260200160002054905090565b47811115610122576040517f08c379a000000000000000000000000000000000000000000000000000000000815260040161011990610379565b60405180910390fd5b806000803373ffffffffffffffffffffffffffffffffffffffff1673ffffffffffffffffffffffffffffffffffffffff168152602001908152602001600020600082825461017091906103c8565b925050819055508173ffffffffffffffffffffffffffffffffffffffff166108fc829081150290604051600060405180830381858888f193505050501580156101bd573d6000803e3d6000fd5b505050565b346000803373ffffffffffffffffffffffffffffffffffffffff1673ffffffffffffffffffffffffffffffffffffffff168152602001908152602001600020600082825461021091906103fc565b92505081905550565b6000819050919050565b61022c81610219565b82525050565b60006020820190506102476000830184610223565b92915050565b600080fd5b600073ffffffffffffffffffffffffffffffffffffffff82169050919050565b600061027d82610252565b9050919050565b61028d81610272565b811461029857600080fd5b50565b6000813590506102aa81610284565b92915050565b6102b981610219565b81146102c457600080fd5b50565b6000813590506102d6816102b0565b92915050565b600080604083850312156102f3576102f261024d565b5b60006103018582860161029b565b9250506020610312858286016102c7565b9150509250929050565b600082825260208201905092915050565b7f536f6c646520496e737566666973616e74000000000000000000000000000000600082015250565b600061036360118361031c565b915061036e8261032d565b602082019050919050565b6000602082019050818103600083015261039281610356565b9050919050565b7f4e487b7100000000000000000000000000000000000000000000000000000000600052601160045260246000fd5b60006103d382610219565b91506103de83610219565b92508282039050818111156103f6576103f5610399565b5b92915050565b600061040782610219565b915061041283610219565b925082820190508082111561042a57610429610399565b5b9291505056fea2646970667358221220b60e06174bf804c07d3bac4e74b9161e68b9b727c7478be3ba22ffbf125c2e4d64736f6c63430008180033",
  "linkReferences": {},
  "deployedLinkReferences": {}
}